:020000040800F2
:10000000B80600209D0100087D0900087F0900084E
:1000100083090008870900088B0900080000000018
:100020000000000000000000000000008F09000830
:1000300091090008000000009309000895090008D4
:10004000B7010008B7010008B7010008B7010008B0
:10005000B7010008B7010008B7010008B7010008A0
:10006000B7010008B7010008B7010008B701000890
:10007000B7010008B7010008B7010008B701000880
:10008000B7010008B7010008A7090008B701000878
:10009000B7010008B7010008B70100089D09000872
:1000A000B7010008B7010008B7010008B701000850
:1000B000B7010008B7010008B7010008B701000840
:1000C000B7010008B7010008B7010008B701000830
:1000D000B7010008B7010008B7010008B701000820
:1000E000B7010008B7010008B7010008B701000810
:1000F000B7010008B7010008B7010008B701000800
:10010000B7010008B7010008B7010008B7010008EF
:10011000B7010008B7010008B7010008B7010008DF
:10012000B7010008B7010008B7010008B7010008CF
:10013000B7010008B7010008B7010008B7010008BF
:10014000B7010008B7010008B7010008B7010008AF
:10015000B7010008B7010008B7010008B70100089F
:10016000B7010008B7010008B7010008B70100088F
:10017000B7010008B7010008B7010008000000003F
:10018000B7010008B7010008DFF80CD008F04EFBFB
:100190000048004757050008B80600200648804779
:1001A00006480047FEE7FEE7FEE7FEE7FEE7FEE75C
:1001B000FEE7FEE7FEE7FEE7C9090008890100083F
:1001C000012001F077FC00BFFEE710B5FE4800F00B
:1001D00058FB012813D100BFFB488068C0F34000E2
:1001E00068B9F94800F052FB48B900BFF64880688A
:1001F000F6490840001DF449886000BF01E0FFF7A0
:10020000DFFF00BF00BFF0480068C0F38000002897
:10021000F8D000BF0420EC49086000BF10BD08B54D
:1002200000200090E84800F02CFB00284FD100BFD0
:10023000E5488068E6490840E349886000BF00BFA0
:1002400008468068E149084040F08050DE498860F7
:1002500000BFE0480068E049B0FBF1F000EB80002F
:1002600040000A21B0FBF1F0009002E00098401E2F
:10027000009000980028F9D17F20D3498968D74A97
:100280001140C2071143D04A916000BF00BF00BFB8
:10029000CD488068C00F0028F9D14020009002E0CE
:1002A0000098401E009000980028F9D100BFC64871
:1002B0008068C6490840401CC349886000BF00BF31
:1002C00000BFC148006800F001000028F8D008BD58
:1002D00070B5012000F0DFFA102003214FF09042AA
:1002E000126890FAA0F3B3FA83F35C000323A340EF
:1002F0009A4390FAA0F3B3FA83F35B0001FA03F395
:100300001A434FF090431A6000BF00BF1946C96AF4
:1003100001431A46D16200BF12200021002807DAEB
:100320000A07140EAE4A00F00F031B1FD45403E05B
:100330000A07130EAB4A135400BF1220012181405B
:100340004209920002F1E022C2F8001100BF4FF40E
:10035000005000F0A0FA9C4800F093FA0446A2482E
:1003600000F08FFA0443A14800F08BFA044354B91B
:100370004FF400309E49896821F47C1101439C4A66
:10038000916000BF00BF904800F07BFA20B18E481A
:1003900000F07CFA002851D100208B49C96821F473
:1003A0007C610143884AD16000BF00BF1146C96823
:1003B00021F400510143D16000BF4FF48050114639
:1003C000C96821F480510143D16000BF002011466B
:1003D000096B21F00F010143116300BF0120114699
:1003E000096940F2034291430143774A116100BF1A
:1003F0001420C021126922F4FE7241EA00031A435C
:10040000714B1A6100BF194606207A4A0024C501C3
:1004100095FAA5F5B5FA85F5EC4001F1300505EB47
:1004200084031F2585401C68AC4302F0F845C0F1E9
:100430001A06F5402C431C6000BF00BF624800F064
:1004400020FA48B1604800F021FA80BB00BF5E4846
:100450008068C0F3C00050BB5B496648002200F0D2
:100460000074050495FAA5F5B5FA85F5EC4001F19F
:10047000140505EB840300F0F8754FF0F87696FA52
:10048000A6F6B6FA86F6F5400726AE401C68B443D9
:1004900000F0F8754FF0F87696FAA6F6B6FA86F6FA
:1004A000F54002FA05F52C431C6000BF00BF00BFF9
:1004B0004548406840F010004349486000BF70BDA7
:1004C00000B587B000BF4C48C06C40F001004A49FD
:1004D000C8640846C06C00F00100019000BF00BF76
:1004E00000BF0846C06C40F00200C8640846C06CFB
:1004F00000F00200019000BF00BF00BF0846C06CC2
:1005000040F00400C8640846C06C00F0040001908C
:1005100000BF00BF0020039004904FF4D45002901D
:1005200002A94FF0904002F0BDFB00200390049020
:100530004FF64600029002A9304802F0B3FB0020BB
:10054000039004904FF4F070029002A92C4802F03E
:10055000A9FB07B000BD86B001F0FBFD01F05EFA1B
:10056000FFF7AEFFFFF7B4FEFFF759FE002001F0E2
:10057000A1FA4FF4967001F01CFE01F0BEFA00BF24
:1005800001F0F0FC0028FBD101F0C3FDD0F8A84039
:1005900001A8A0479DF8040040B9002002900390F4
:1005A00001F0B7FDC46BDDE90201A047B02001F006
:1005B00040FD01F0AEFD44680020A04701F0A9FD18
:1005C000D0F8944000201DE000000450C0FFFF7FE1
:1005D000C0FFFF5F08000020400D0300C0FFFF3F89
:1005E00018ED00E000E400E00001045000020450B7
:1005F000000304500002B02500100240000400482F
:1006000000080048A04701F084FDD0F88C4001208C
:10061000A0477B200290039001F07BFDC46BDDE9D5
:100620000201A04701F075FDD0F80841A04701F094
:1006300070FDD0F80441A04701220021172001F0ED
:10064000A7FE172001F0E2FE002001F03FFA4FF470
:10065000967001F0AEFDF6E00020954908704FF469
:100660000051944802F0A4FC28B99148007840F069
:1006700001008F4908704FF480418E4802F098FCC9
:1006800028B98B48007840F00200894908704FF47F
:100690000041884802F08CFC28B98548007840F079
:1006A0000400834908700221824802F081FC28B9C5
:1006B0007F48007840F008007D49087004217D489B
:1006C00002F076FC28B97A48007840F010007849AA
:1006D00008704FF40061774802F06AFC28B974484A
:1006E000007840F02000724908704FF48051714842
:1006F00002F05EFC28B96E48007840F040006C497A
:1007000008704FF400614FF0904002F051FC28B99E
:100710006748007840F0800065490870002064490F
:1007200048704FF480514FF0904002F041FC28B9DE
:100730005F48407840F001005D49487020215E48E4
:1007400002F036FC28B95A48407840F00200584977
:1007500048704021584802F02BFC28B95448407892
:1007600040F00400524948704FF48071524802F042
:100770001FFC28B94E48407840F008004C494870AA
:100780004FF400714FF0904002F012FC28B9484835
:10079000407840F01000464948708021464802F0F9
:1007A00007FC28B94248407840F020004049487092
:1007B0004021404802F0FCFB28B93D48407840F019
:1007C00040003B49487080214FF0904002F0F0FB20
:1007D00028B93748407840F0800035494870FFF725
:1007E000F4FC00BF3548006C80B2354908800846EB
:1007F0000088C0F307102E49887001F08AFCD0F8F9
:10080000FC4004A8A04705E001F083FCD0F8FC40C0
:1008100004A8A0479DF811000028F5D19DF812000A
:100820000028F1D101202749087001F072FC032152
:10083000D0F89C401E48A04700BF224800780028FE
:10084000FBD101F043F907E770B50446402C0DD108
:1008500001F05FFCD0F8AC501B48A8471A4800785C
:1008600000F0400010B100201649087070BD00BFB4
:100870001248406820F010001049486000BFFFF7A0
:100880009FFC0146886800F00100704701468868B7
:10089000C0F38000704708B50C49C96C01430B4A8E
:1008A000D1641146C96C0140009100BF08BD000031
:1008B0006C010020000400480008004800000450BB
:1008C000040000200300002002000020001002406D
:1008D0007047704700BFFEE710B5B8B010202790F2
:1008E00001202D9000202E90B0202F9002203190DA
:1008F000012127A8C1620621016328214163072144
:1009000081630421C163016405F069FF08B1FFF749
:10091000E1FF0F20229003202390002024902590B7
:100920002690042122A806F06AFA08B1FFF7D2FF48
:100930004220009000200F901490684606F0C9FDF8
:1009400008B1FFF7C7FF4FF4007005F0E4F908B1F4
:10095000FFF7C0FF06F063FB4FF47A71B0FBF1F4D0
:10096000204601F08BFD042001F028FE00221146F4
:10097000501E01F00DFD38B010BD0000704700BFE3
:10098000FEE700BFFEE700BFFEE700BFFEE77047DF
:100990007047704710B501F003FC10BD10B5402042
:1009A00002F02FFB10BD10B500BF06480068C0F371
:1009B000001030B100BF10200249086000BFFFF7EF
:1009C00056FF10BD000004504548006840F4700018
:1009D000434908604348006840F00100414908600D
:1009E00000208860084600683F4908403D4908608B
:1009F0008814C8600846006820F480200860002041
:100A00008861C8033649803908607047F0B5002313
:100A100000200022022400250221324E366806F012
:100A200008062EB92F4E94363668C6F3032003E02D
:100A30002C4E3668C6F303102C4E56F82000294E73
:100A4000B66806F00C0636B1042E07D0082E09D081
:100A50000C2E35D10AE0264E306034E0254E244F6E
:100A60003E6030E0244E224F3E602CE01D4EF66882
:100A700006F003051B4EF668C6F30216711C022D24
:100A800002D0032D08D103E01A4EB6FBF1F206E0C6
:100A9000194EB6FBF1F202E0B0FBF1F200BF00BF6D
:100AA000104EF668C6F3062672430E4EF668C6F37D
:100AB0004166761C7400B2FBF4F60D4F3E6002E016
:100AC0000B4E306000BF00BF064EB668C6F303167B
:100AD0000A4FBB5D064E3668DE40054F3E60F0BDF6
:100AE00088ED00E000100240FFFFF6EADC88000815
:100AF000080000200024F40000127A00C4880008D6
:100B000010B501F032F910BD70B506460C46154619
:100B10002B462246AE21304601F0E3F970BD10B5F8
:100B20000446012217212046FFF7EEFF10BD10B545
:100B30000446012220212046FFF7E6FF10BD10B534
:100B400004462146A62001F03AF910BD38B5044606
:100B5000012200216846FFF7D7FF05460DB1284660
:100B600038BD9DF8000020800020F9E72DE9F05FF6
:100B70000746884691464D46C246BB4600BFB5F57E
:100B8000807F01DD002400E0ECB223465246AE2116
:100B9000584601F055F90646A3440AEB04001FFA33
:100BA00080FA281B85B2002D01DD002EE7D03046EB
:100BB00000F02DBF01B5012200216846FFF7D6FFE6
:100BC00008BD38B50446012211466846FFF79CFF70
:100BD00005460DB1284638BD9DF800002070002064
:100BE000F9E738B504460094012211466846FFF73C
:100BF000BDFF38BD70B506460C4615462B4622464D
:100C0000A621304601F06DF970BD2DE9F05F074671
:100C100088469146BA464D46C34600BFB5F5807F2B
:100C200002DD4FF4807400E02C4623465A46A6218C
:100C3000504601F005F90646A2440BEB04001FFAEA
:100C400080FB281B85B2002D01DD002EE6D030464A
:100C500000F0DDBE70B505460C462246A6212846AA
:100C600001F06FF970BD7CB5044608221821684672
:100C7000FFF74AFF06460EB130467CBD00202060DB
:100C8000002509E0C5F107001DF80000216840EAD1
:100C900001202060681CC5B2042DF3DB00206060D9
:100CA000002509E0C5F103001DF80000616840EA75
:100CB00001206060681CC5B2042DF3DB0020DCE776
:100CC00010B50446012212212046FFF71DFF10BD7A
:100CD00038B50446012210216846FFF715FF054686
:100CE0000DB1284638BD9DF8000010B900202070D5
:100CF00001E0012020700020F4E710B50446012235
:100D000013212046FFF700FF10BD38B5044601222D
:100D100011216846FFF7F8FE05460DB1284638BD9B
:100D20009DF8000010B90020207001E00120207023
:100D30000020F4E738B5044601220B216846FFF78E
:100D4000E3FE05460DB1284638BD9DF8000000F0D1
:100D5000030020709DF80000C0F3810060709DF8D2
:100D60000000C0F30110A0709DF800008009E07041
:100D70000020E9E7F8B505460C4600200090012266
:100D80000B216846FFF7C0FE06460EB13046F8BD9F
:100D900035B1012D10D0022D1AD0032D30D123E012
:100DA0009DF8000000F0FC00009004F001009DF8A8
:100DB00000100843009025E09DF8000000F0F300CB
:100DC00000909DF8000040EA8400C0B2009019E055
:100DD0009DF8000000F0CF0000909DF8000040EA70
:100DE0000410C0B200900DE09DF8000000F03F003C
:100DF00000909DF8000040EA8410C0B2009001E02D
:100E00000120C4E700BF01220B216846FFF7AEFEB8
:100E1000BDE738B5044601220C216846FFF774FE91
:100E200005460DB1284638BD9DF8000000F00100D0
:100E300010B10120207001E0002020709DF800001A
:100E400000F00200022802D10120607001E00020C1
:100E500060702846E7E738B505460C463DB9012CD9
:100E600002D10120009009E00020009006E0012C52
:100E700002D10320009001E00020009001220C210B
:100E80006846FFF773FE38BD38B5044601220F21CE
:100E90006846FFF739FE05460DB1284638BD9DF876
:100EA000000000F0010010B10120207001E00020DE
:100EB00020700020F2E738B50446009401220F218B
:100EC0006846FFF753FE38BD13B586B0142101A85C
:100ED00007F0A1FC09208DF80C0000241BE0C4F1F0
:100EE0000301C9000698C84001A90855C4F10301CF
:100EF000C9000798C840C1B201AA201D115401A819
:100F0000015D04F10900115401A9201D095C09309B
:100F10001154601CC4B2042CE1DB11224FF41061A7
:100F200001A8FFF723FE08B010BD13B586B0142149
:100F300001A807F070FC07208DF80C0000241BE0CE
:100F4000C4F10301C9000698C84001A90855C4F1BD
:100F50000301C9000798C840C1B201AA201D11545D
:100F600001A8015D04F10900115401A9201D095CCB
:100F700009301154601CC4B2042CE1DB11224FF47F
:100F8000106101A8FFF7F2FD08B010BDF8B50746E3
:100F90000D4637B1012F06D0022F06D0032F08D1FE
:100FA00005E0042407E0062405E0082403E00A2401
:100FB00001E00120F8BD00BF012221466846FFF78D
:100FC000A3FD06460EB13046F4E79DF8000000F0A0
:100FD000030028709DF80000C0F3810068700020B5
:100FE000E8E733B581B0054635B1012D06D0022DB5
:100FF00006D0032D08D105E0042407E0062405E00F
:10100000082403E00A2401E001203EBD00BF9DF852
:1010100009000C2101EA800000909DF8080000F012
:1010200003009DF800100843009001222146684605
:10103000FFF79CFDE9E770B505460E4625B1012D89
:1010400004D0022D06D103E0052405E0072403E0C7
:10105000092401E0012070BD00BF01222146304675
:10106000FFF752FDF7E773B5054625B1012D04D012
:10107000022D06D103E0052405E0072403E009243E
:1010800001E001207CBD00BF0122214601A8FFF73D
:101090006DFD06463046F5E738B5044603221421B7
:1010A0006846FFF731FD05460DB1284638BD9DF86D
:1010B000020020709DF8010060809DF80000A1787A
:1010C00040EA012060800020F0E7F8B5FF2500200D
:1010D000ADF802008DF800006846FFF7DDFFBDF8AF
:1010E0000200401C9DF80010491C00FB01F6012085
:1010F000C0EB5610C5B229460220FFF7B4FF0446E4
:101100001CB1042C01D02046F8BD29460120FFF770
:10111000AAFF04461CB1042C01D02046F4E729465E
:101120000020FFF7A0FF04461CB1042C01D020468C
:10113000EAE72046E8E72DE9F84F04460D46164653
:1011400099464FF000080020ADF802008DF800002D
:101150006846FFF7A1FFBDF80200401C9DF8001093
:10116000491C48431FFA80F8202C0BDB444509DC5E
:10117000A8F12000A84205DB2038B04202DB20386D
:10118000484502DA012000F045BC6019304448446B
:10119000404501DD0120F6E7E11704EBD16149117B
:1011A000A4EB411141B12046E11704EBD161491193
:1011B000A4EB4111611A8CB2E91705EBD161491119
:1011C000A5EB411141B12846E91705EBD161491161
:1011D000A5EB4111691A8DB2F11706EBD1614911E6
:1011E000A6EB411141B13046F11706EBD16149112F
:1011F000A6EB4111711A8EB2FFF767FF07461FB1C8
:10120000042F01D03846BEE72046E11704EBD16138
:101210004911491E01F0FF0A51460020FFF723FF44
:1012200007461FB1042F01D03846ACE76019C1173B
:1012300000EBD1614911491E01F0FF0A514601201E
:10124000FFF711FF07461FB1042F01D038469AE778
:1012500061198819C11700EBD1614911491E01F0CC
:10126000FF0A51460220FFF7FEFE07461FB1042F7A
:1012700001D0384687E7002085E738B504460122CB
:1012800002216846FFF740FC05460DB1284638BDEF
:101290009DF8000000F0010010B10120207001E075
:1012A000002020700020F2E738B5044600940122A7
:1012B00002216846FFF75AFC38BD38B504460020C5
:1012C0000090012203216846FFF71EFC0546A5B9E0
:1012D0009DF8000000F0010010B10120207001E035
:1012E000002020709DF8000000F00200022802D1CA
:1012F0000120607001E000206070284638BD01B513
:10130000012203216846FFF731FC08BD70B506468F
:101310000C46154642F20200844202DB401D844224
:1013200001DD012070BD2B462246A621304600F08B
:10133000D8FDF7E738B504460020009001220321CC
:101340006846FFF7E3FF05465DB99DF8000000F031
:10135000010010B10120207001E000202070002069
:1013600038BD2846FCE738B5002000900122032153
:101370006846FFF7C9FB04460CB1204638BD9DF80E
:10138000000040F001000090012203216846FFF7B1
:10139000EDFBF3E738B500200090012203216846F9
:1013A000FFF7B2FB04460CB1204638BD9DF80000A3
:1013B00000F0FE000090012203216846FFF7D6FBF3
:1013C000F3E738B504460020009001220321684667
:1013D000FFF79CFF05465DB99DF8000000F0010095
:1013E00010B10120207001E000202070002038BDE5
:1013F0002846FCE738B5002000900122032168460A
:10140000FFF782FB04460CB1204638BD9DF8000072
:1014100040F002000090012203216846FFF7A6FB7E
:10142000F3E738B500200090012203216846FFF75A
:101430006BFB04460CB1204638BD9DF8000000F05F
:10144000FD000090012203216846FFF78FFBF3E7C0
:1014500038B5044601220D216846FFF755FB0546C5
:101460000DB1284638BD9DF8000000F0010010B114
:101470000120207001E0002020700020F2E738B544
:101480000446009401220D216846FFF76FFB38BD2A
:1014900038B5044601220E216846FFF735FB0546A4
:1014A0000DB1284638BD9DF8000000F007002070FF
:1014B0000020F7E738B5044604F007000090012249
:1014C0000E216846FFF752FB38BD70B506460C4644
:1014D0001546B4F5807F01DD012070BD42F20800A1
:1014E000204482B22B46A621304600F0FAFCF4E7F5
:1014F00070B506460C46FF2C08DC234642F2080273
:10150000A621304600F09CFC054600E00125284657
:1015100070BD2DE9F04107460C46154642F2020027
:10152000844202DB401D844202DD0120BDE8F081DF
:10153000FF2D07DC2B462246A621384600F080FC12
:10154000064600E001263046F0E738B504460122A1
:1015500042F204016846FFF7D9FE05460DB1284660
:1015600038BD9DF8000000F0010010B1012020708E
:1015700001E0002020700020F2E710B504460122AF
:1015800042F205012046FFF7C1FE10BD10B504462A
:10159000012251032046FFF7B9FE10BD38B50446BD
:1015A000012251036846FFF7B1FE05460DB12846FA
:1015B00038BD9DF8000000F08000802802D1012095
:1015C000207001E0002020700020F1E738B50122F2
:1015D00051036846FFF79AFE04460CB1204638BD19
:1015E0009DF8000040F08000009001225103684601
:1015F000FFF78FFFF3E738B5012251036846FFF785
:1016000085FE04460CB1204638BD9DF8000000F070
:101610007F000090012251036846FFF77AFFF3E74D
:1016200038B5044600200090012242F202016846CB
:10163000FFF76CFE054665BB9DF8000000F0010059
:1016400010B10120207001E0002020709DF8000002
:1016500000F00200022802D10120607001E00020A9
:1016600060709DF8000000F00400042802D1012001
:10167000A07001E00020A0709DF8000000F00800BC
:10168000082802D10120E07001E00020E070002075
:1016900038BD2846FCE738B50446012242F2020173
:1016A0006846FFF733FE05460DB1284638BD9DF864
:1016B000000000F0010010B10120207001E00020C6
:1016C00020700020F2E738B5012242F2020168469C
:1016D000FFF71CFE04460CB1204638BD9DF8000003
:1016E00040F001000090012242F202016846FFF73B
:1016F00010FFF2E738B5012242F202016846FFF717
:1017000005FE04460CB1204638BD9DF8000000F0EF
:10171000FE000090012242F202016846FFF7F9FE46
:10172000F2E738B5044600200090012242F202019F
:101730006846FFF7EBFD054665B99DF8000000F02F
:101740000200022802D10120207001E00020207058
:10175000002038BD2846FCE738B50446002000903C
:10176000012242F202016846FFF7D0FD054665B945
:101770009DF8000000F00400042802D10120207030
:1017800001E000202070002038BD2846FCE738B575
:10179000044600200090012242F202016846FFF751
:1017A000B5FD054665B99DF8000000F00800082861
:1017B00002D10120207001E000202070002038BDFF
:1017C0002846FCE738B5044600200090012242F28A
:1017D00003016846FFF79AFD0546B5B99DF800007C
:1017E00000F0010010B10120207001E00020207005
:1017F0009DF8000000F00200022802D10120607074
:1018000001E000206070002038BD2846FCE701B5EB
:10181000012242F203016846FFF77BFE08BD38B59E
:10182000044600200090012242F203016846FFF7BF
:101830006DFD05465DB99DF8000000F0010010B196
:101840000120207001E000202070002038BD2846D3
:10185000FCE738B500200090012242F203016846FF
:10186000FFF754FD04460CB1204638BD9DF800003A
:1018700040F001000090012242F203016846FFF7A8
:1018800048FEF2E738B500200090012242F2030141
:101890006846FFF73BFD04460CB1204638BD9DF875
:1018A000000000F0FE000090012242F203016846B1
:1018B000FFF72FFEF2E738B5044600200090012222
:1018C00042F203016846FFF721FD05465DB99DF828
:1018D000000000F0010010B10120207001E00020A4
:1018E0002070002038BD2846FCE738B50020009065
:1018F000012242F203016846FFF708FD04460CB1DD
:10190000204638BD9DF8000040F002000090012202
:1019100042F203016846FFF7FCFDF2E738B500200C
:101920000090012242F203016846FFF7EFFC0446F3
:101930000CB1204638BD9DF8000000F0FD0000907D
:10194000012242F203016846FFF7E3FDF2E738B5F2
:101950000446012242F206016846FFF7D7FC05461D
:101960000DB1284638BD9DF8000000F00100207040
:101970009DF80000C0F3400060709DF80000C0F3C7
:101980008000A0709DF80000C0F30010E0709DF88A
:101990000000C0F3401020719DF8000080096071C4
:1019A0000020DFE738B50446012242F2060168460E
:1019B000FFF7ACFC05460DB1284638BD9DF8000088
:1019C00000F0010010B10120207001E00020207023
:1019D0000020F2E708B501200090012242F2060142
:1019E0006846FFF796FD08BD08B50020009001226B
:1019F00042F206016846FFF78CFD08BD10B50446AB
:101A0000012242F207012046FFF780FC10BD30BCE6
:101A1000BDE8C09F18BCBDE8E08F000000B587B0EE
:101A200000BFFD48C06C40F00100FB49C864084697
:101A3000C06C00F00100019000BF00BF00BF08466D
:101A4000C06C40F00200C8640846C06C00F00200A0
:101A5000019000BF00BF30200290012003900320BE
:101A600005900020049002A9EC4801F01BF94FF406
:101A70008060029002A94FF0904001F013F907B086
:101A800000BD10B586B00446E54A32F8341002EBCA
:101A9000C4025068002201F093FAE14830F83400A3
:101AA0000190DF4A02EBC4020199506801F0ECF9A1
:101AB00006B010BD10B50446D94A32F8341002EB16
:101AC000C4025068012201F07BFA10BD10B5044633
:101AD000D34A32F8341002EBC4025068002201F0FD
:101AE0006FFA10BD10B50446CD4A32F8341002EB3F
:101AF000C402506801F069FA10BD00B587B000BF9C
:101B0000C548C06C40F00100C349C8640846C06CB9
:101B100000F00100019000BF00BF40200290C148CA
:101B20000390032005900020049002A94FF09040FC
:101B300001F0B8F807B000BD00B585B040200090B6
:101B40004FF09040009901F09FF905B000BD10B52D
:101B500040214FF0904001F02BFA10BD00B587B046
:101B600000BFAD48C06C40F00100AB49C8640846F6
:101B7000C06C00F00100019000BF00BF881502900A
:101B80000120039000200590049002A94FF090409E
:101B900001F088F800224FF480714FF0904001F07E
:101BA0000FFA07B000BD00B585B04FF4807000900B
:101BB0004FF09040009901F067F905B000BD10B5F5
:101BC0004FF480714FF0904001F0F2F910BD10B564
:101BD000044622464FF480714FF0904001F0F0F936
:101BE00010BD00B587B000BF8B48806D40F4001079
:101BF000894988650846806D00F40010019000BF97
:101C000000BF0846806B40F4001088630846806B74
:101C100020F40010886300BF0846C06C40F002004A
:101C2000C8640846C06C00F00200019000BF00BF0D
:101C30004FF4407002901220039000200490022084
:101C400005900420069002A9744801F02BF807B013
:101C500000BD70B504460025734803F04AFEB8B9CC
:101C6000724871490860084644600121C160002142
:101C70000161C1610162FFF7B4FF6B4801F0E3F954
:101C800005466B48844203D24FF4801003F010FFE6
:101C9000284670BD00B585B04FF4407000905F4895
:101CA000009901F0F1F85C48806D20F400105A4969
:101CB000886505B000BD10B50024FFF7EBFF5A485A
:101CC00001F022FA0446204610BD10B504465648DD
:101CD00003F00FFE08B1FFF7EEFF062C1ED2DFE87F
:101CE00004F003070B1014185248FFF7B2FF1AE074
:101CF0005148FFF7AEFF16E04D486430FFF7A9FFEB
:101D000011E04B48FFF7A5FF0DE04C48FFF7A1FF9E
:101D100009E04A481438FFF79CFF04E047481438AC
:101D2000FFF797FF00BF00BF10BD014631B1012989
:101D300006D0022906D0032908D105E0002070470B
:101D40000120FCE70220FAE70320F8E70320F6E78A
:101D500010B5FFF7D2FEFFF701FF38481438FFF740
:101D600078FF0446FFF7E1FF10BD10B5FFF7F0FF65
:101D700010BD2D48406C042801D10120704700207F
:101D8000FCE710B5FFF7F5FF10BD10B5FFF7F9FF41
:101D900010BD70B504460D464FF4A0732A46214687
:101DA000214803F000FB70BD70B504460D4629467E
:101DB0002046FFF7EEFF0646FFF7B7FF70BD70B590
:101DC00004460D4629462046FFF7EEFF70BD2DE97B
:101DD000FE4304460E4617461D46A0464FF4A0702B
:101DE00002233A463146CDE9008502900E4802F0C2
:101DF000BBFE00F0B3B82DE9F04104460D4616468F
:101E00001F463B46324629462046FFF7E0FF804604
:101E1000FFF78BFFBDE8F08100100240000400488E
:101E200048010020000011106C0200200054004006
:101E30003A16B510FFEE51F0231C71A03C12B10010
:101E40002DE9F04780460E4691469A4653464A464B
:101E500031464046FFF7CFFF07469FB900F0A6F98D
:101E6000054600BF01213046FFF7A9FF044600F0F8
:101E70009DF9401BB0F5A07F01D2002CF2D134B106
:101E8000032704E0FFF781FF012800D1042738462B
:101E9000BDE8F0872DE9FE4304460E4617461D4671
:101EA000A1464FF4A07002233A463146CDE9009591
:101EB0000290294802F086FF8046404600F04EB866
:101EC0002DE9F04104460D4616461F463B46324674
:101ED00029462046FFF7DEFF8046FFF726FFBDE8D4
:101EE000F0812DE9F04104460D4616461F463B465B
:101EF000324629462046FFF7E3FFBDE8F0812DE991
:101F0000F84304460E46154627464FF4A0702B466C
:101F10003A4631460090104801F007FB80464046A3
:101F2000BDE8F8832DE9F04104460D4616463246D9
:101F300029462046FFF7E3FF0746FFF7F6FEBDE818
:101F4000F08170B504460D461646324629462046B5
:101F5000FFF7E8FF70BD00006C02002006BCBDE882
:101F6000F883000008B5002000906C480078F8B9AC
:101F70006B48006808B9012008BD694908688047B6
:101F800008B10120F8E766484168684688479DF82F
:101F90000000242803D09DF80000262809D1012044
:101FA0005E4908705E485F4908605F48096848629A
:101FB00006E000205B490860584908700120DBE713
:101FC0000020D9E700205749096848625549086050
:101FD00052490870704751480078704710B5044660
:101FE00050480068406808B9012010BD4D4800689D
:101FF000416820468847F8E708B54A480068406AC3
:10200000C16D684688479DF80000401CBDF802106D
:10201000491C484308BD10B5044642480068806822
:1020200008B9012010BD3F480068816820468847F4
:10203000F8E710B504463B480068006908B901207C
:1020400010BD38480068016920468847F8E710B598
:10205000044634480068C06808B9012010BD314802
:102060000068C16820468847F8E770B504460D4609
:1020700016462C480068406908B9012070BD2948FF
:10208000006832462946436920469847F6E770B50E
:1020900004460D46164623480068806908B90120A9
:1020A00070BD20480068324629468369204698471B
:1020B000F6E770B504460D4616461A480068C06932
:1020C00008B9012070BD1748006832462946C36927
:1020D00020469847F6E72DE9F04105460E4617469B
:1020E00010480068006A10B90120BDE8F0810D4871
:1020F00000683A463146036A28469847044634B990
:1021000000BF0120FFF787FF0028FAD1EDE7204646
:10211000EBE704480068406A704700006401002053
:102120000C0000206001002034000020704770B5D2
:1021300004467D4800684FF47A71B0FBF1F52846FB
:1021400000F09CF900222146501E00F021F90020E9
:1021500070BD10B5032000F009F90F20FFF7E7FF6D
:10216000FEF7B6FB002010BD704710B54FF0FF30F2
:102170006E49886300208863401E0864002008645C
:10218000401E886200208862401EC8620020C8622B
:10219000401E086300200863FEF79BFB002010BD73
:1021A00063480068401C62490860704760480068E6
:1021B000704770B50446FFF7F9FF06462546681CD0
:1021C00000B16D1C00BFFFF7F1FF801BA842FAD3DE
:1021D00070BD4FF0E020006920F002004FF0E021D8
:1021E000086170474FF0E020006940F002004FF0B6
:1021F000E021086170474F4870474F480068000C65
:1022000070474D480068C0F30B0070474B480068AA
:1022100070474A48001D0068704748480830006809
:1022200070474548406840F00100434948607047A6
:102230004148406820F001003F49486070473E48EF
:10224000406840F002003C49486070473A484068A6
:1022500020F002003849486070473748406840F035
:1022600004003549486070473348406820F0040056
:10227000314948607047CA2031494862532048625A
:10228000012030490860704701202F4908627047DB
:1022900000202D49086270472949096B21F004018B
:1022A0000143274A116370472549096B21F0020158
:1022B0000143234A116370472149496B21F03F01D3
:1022C00001431F4A5163704710B500241C48006B3E
:1022D00040F001001A490863FFF768FF044606E072
:1022E000FFF764FF001B0A2801D9032010BD144822
:1022F000006B00F008000028F2D00020F6E710483C
:10230000006B20F001000E49086370470C484068DC
:1023100040F480700A49486070470948406820F4DA
:102320008070074948607047080000200010024094
:102330006801002000020701002004E09075FF1FE3
:1023400000000140000320420000204210B5002898
:1023500007DA0A07140EBF4A00F00F031B1FD454FC
:1023600003E00A07130EBC4A135410BD00BF00F06F
:102370000702B84B0C3B19684FF6FF031940B74BE7
:102380000B4343EA0221B34B0C3B196000BF70477B
:102390002DE9F05F80460D461646002700F054F9FF
:1023A000074639462A46334601F00700C0F1070ABE
:1023B000BAF1040F02D94FF0040A01E0C0F1070A94
:1023C000D14600F1040ABAF1070F02D24FF0000A19
:1023D00001E0A0F1030AD4464FF0010A0AFA09FA13
:1023E000AAF1010A0AEA020A0AFA0CFA4FF0010BF2
:1023F0000BFA0CFBABF1010B0BEA030B4AEA0B04E3
:1024000021464046FFF7A2FF00F02EB900BF00F0C2
:102410001F02012191404209920002F1E022C2F81C
:10242000001100BF704700BF00F01F020121914062
:102430008B4A430942F8231000BF704700BF00BF1A
:1024400000BF00BF00BFBFF34F8F00BF00BF00BF82
:1024500080480C38006800F4E06080490843001DA3
:102460007C490C39086000BF00BF00BFBFF34F8F2D
:1024700000BF00BF00BF00BF00BFFDE770B504464E
:102480002546681EB0F1807F01D301200FE0681E51
:102490004FF0E02148610F214FF0FF30FFF756FF6A
:1024A00000204FF0E021886107200861002070BD06
:1024B00010B500F0C9F810BD2DE9F04304462046E0
:1024C000002808DA634F00F00F0CACF1040C17F889
:1024D0000C703F0902E0604F3F5C3F093D460E46ED
:1024E00006F00700C0F10708B8F1040F02D94FF059
:1024F000040801E0C0F10708C44600F10408B8F17F
:10250000070F02D24FF0000801E0A0F10308474690
:1025100025FA07F84FF0010909FA0CF9A9F10109A8
:1025200008EA0908C2F800804FF0010808FA07F825
:10253000A8F1010808EA0508C3F8008000BFBDE85B
:10254000F08300BF00F01F0201219140444A803215
:10255000430942F8231000BF704710B501460846F2
:102560003F4A8032430952F8232000F01F04012320
:10257000A3401A400AB1012200E00022104610BD1B
:1025800000BF00F01F0201219140364A430942F882
:10259000231000BF704710B501460846314A80320B
:1025A000430952F8232000F01F040123A3401A40DE
:1025B0000AB1012200E00022104610BD042808D113
:1025C0004FF0E021096941F004014FF0E022116170
:1025D00007E04FF0E021096921F004014FF0E0220B
:1025E00011617047704710B5FFF7FCFF10BD4178CF
:1025F000184A803211600178F9B1121D41681160EA
:10260000017B0907C27A41EA0261827A41EAC2414A
:10261000427B41EA8241827B41EA4241C27B41EAFC
:102620000241427A41EA0221027A41EA42010278F9
:102630001143084A8832116005E00021054A8432BE
:102640001160121D1160704702480C380068C0F319
:102650000220704718ED00E000E400E00000FA05F9
:1026600080E100E080E200E030BCBDE8C09F0000F7
:1026700010B50146002209B9012010BD8868B0F5E7
:10268000804F00D000BFFE4B086898420BD2FD4B34
:102690000868C01A1423B0FBF3F080004864F948BE
:1026A000083808640AE0F64B0868C01A1423B0FB27
:1026B000F3F080004864F24808380864022081F88A
:1026C00025000868026843F6F0708243D1E90203EE
:1026D00018430B6918434B6918438B691843CB693E
:1026E00018430B6A18430243086802608868B0F513
:1026F000804F32D0E34B083B086C984217D1D0F89A
:10270000A80091F844400F23A3409843DD4BA03329
:10271000186091F8443048689840DA4B083BD3F889
:10272000A8301843D74B083BC3F8A80015E0D4489D
:10273000A030006891F844400F23A3409843D04B49
:10274000A033186091F8443048689840CC4BA033CF
:102750001B681843CA4BA03318600020C862086386
:1027600048638863C863012081F82500002081F850
:10277000240000BF81E7014609B9012070470868BD
:10278000006820F001000A68106000200A681060EC
:10279000BB4A086890420BD2BA4A0868801A1422D1
:1027A000B0FBF2F080004864B648083808640AE0DC
:1027B000B34A0868801A1422B0FBF2F08000486423
:1027C000AF480838086491F84420012090400A6C12
:1027D0005060AC4A083A086C90420BD1D0F8A8007F
:1027E00091F844300F229A409043A64A083AC2F822
:1027F000A8000AE0A248A030006891F844300F22F7
:102800009A4090439E4AA03210600020C86381F82D
:10281000250000BF81F8240000BF00BFAEE730B53F
:1028200090F844500124AC40056C6C60046863600F
:102830008468102C04D10468A2600468E16003E09D
:102840000468A1600468E26030BD2DE9F0410446EF
:102850000D4616461F464FF0000800BF94F82400AE
:10286000012802D10220BDE8F081012084F8240073
:1028700000BF94F82500012817D1022084F8250014
:102880000020E0632068006820F0010021680860F3
:102890003B46324629462046FFF7C1FF20680068C4
:1028A00040F001002168086006E000BF002084F8C5
:1028B000240000BF4FF002084046D4E72DE9F04164
:1028C00004460D4616461F464FF0000800BF94F818
:1028D0002400012802D10220BDE8F081012084F803
:1028E000240000BF94F8250001282CD1022084F890
:1028F00025000020E0632068006820F001002168C6
:1029000008603B46324629462046FFF788FF206B89
:1029100030B12068006840F00E00216808600BE0CC
:102920002068006820F004002168086020680068C2
:1029300040F00A00216808602068006840F001004B
:102940002168086006E000BF002084F8240000BF72
:102950004FF002084046BFE70146002091F82520CD
:10296000022A03D00422CA63012019E00A6812680F
:1029700022F00E020B681A600A68126822F0010247
:102980000B681A6091F8443001229A400B6C5A602F
:10299000012281F8252000BF002281F8242000BFF9
:1029A000704770B50446002594F82500022803D02E
:1029B0000420E06301251EE02068006820F00E007E
:1029C000216808602068006820F001002168086024
:1029D00094F8441001208840216C4860012084F85C
:1029E000250000BF002084F8240000BFA06B10B1B8
:1029F0002046A16B8847284670BD2DE9F04104466A
:102A00000E4615464FF0000894F82500022804D021
:102A10000420E0630120BDE8F0812068006800F038
:102A2000200020B14FF48070E0630120F3E72EB95D
:102A300094F84410022000FA01F704E094F84410DE
:102A4000042000FA01F7FFF7B1FB804631E0206C6B
:102A5000006894F84420082191400840A0B194F8FF
:102A6000441001208840216C48600120E06384F814
:102A7000250000BF002084F8240000BF0120CAE721
:102A80000804024008000240681C90B12DB1FFF715
:102A90008DFBA0EB0800A8420BD92020E0630120A9
:102AA00084F8250000BF002084F8240000BF012026
:102AB000B1E7206C006838400028C8D04EB994F8BF
:102AC000441002208840216C4860012084F82500D1
:102AD00005E094F8441004208840216C486000BF51
:102AE000002084F8240000BF00BF94E770B50446BE
:102AF000206C05682068066894F84410042088401B
:102B00002840D0B106F00400B8B12068006800F099
:102B1000200028B92068006820F0040021680860BF
:102B200094F8441004208840216C4860206B0028F1
:102B30004ED02046216B88474AE094F8441002208A
:102B40008840284008B306F00200F0B12068006811
:102B500000F0200040B92068006820F00A002168D9
:102B60000860012084F8250094F844100220884071
:102B7000216C486000BF002084F8240000BFE06A98
:102B800030B32046E16A884722E094F844100820D8
:102B900088402840E0B106F00800C8B1206800680D
:102BA00020F00E002168086094F84410012088404D
:102BB000216C48600120E06384F8250000BF0020FC
:102BC00084F8240000BF606B10B12046616B884719
:102BD00070BD10B50346002400BF93F824000128FF
:102BE00001D1022010BD012083F8240000BF93F81A
:102BF0002500012812D131B1012906D0022906D0C1
:102C0000032908D105E0DA6207E01A6305E05A6398
:102C100003E09A6301E0012400BF00E0012400BF4B
:102C2000002083F8240000BF2046DBE70246002393
:102C300000BF92F82400012801D102207047012032
:102C400082F8240000BF92F8250001281BD1052935
:102C500016D2DFE801F00306090C0F000020D06255
:102C600010E0002010630DE0002050630AE0002017
:102C7000906307E00020D06210635063906301E02E
:102C8000012300BF00E0012300BF002082F82400E0
:102C900000BF1846D2E7014691F82500704701466B
:102CA000C86B704778B50346002200240020E5E099
:102CB000012696400D6805EA0604002C7DD04D687B
:102CC000022D02D04D68122D13D1D60803F1200534
:102CD00055F826005507EE0E0F25B540A8435607B8
:102CE000F60E0D69B5402843D60803F1200545F8D6
:102CF0002600186856000325B540A8430D7905F055
:102D000003055600B540284318604D68012D08D0D2
:102D10004D68022D05D04D68112D02D04D68122D41
:102D200013D1986856000325B540A8435600CD68D6
:102D3000B54028439860586801259540A8430D790F
:102D4000C5F300159540284358600D7905F003053B
:102D5000032D09D1D86A01259540A8430D79C5F303
:102D6000C00595402843D862D86856000325B54071
:102D7000A84356008D68B5402843D8604D6805F0DB
:102D80008055B5F1805F78D100BFA54D2D6E45F01F
:102D90000105A34E356635462D6E05F001050095FB
:102DA00000BF00BF4FEAB635960855F826009507D4
:102DB0002E0F0F25B540A84300E05EE0B3F1904F21
:102DC00001D100251EE0974DAB4201D1012519E04C
:102DD000954DAB4201D1022514E0944DAB4201D197
:102DE00003250FE0924DAB4201D104250AE0914D3D
:102DF000AB4201D1052505E08F4DAB4201D106253F
:102E000000E007259607360FB54028438B4D9608FE
:102E100045F826008A4D2868A0434D6805F48035A2
:102E2000B5F5803F00D12043854D28602D1D2868D1
:102E3000A0434D6805F40035B5F5003F00D12043AF
:102E40007F4D2D1D28602D1D2868A0434D6805F479
:102E50008015B5F5801F00D12043794D08352860D5
:102E60002D1D2868A0434D6805F40015B5F5001F19
:102E700000D12043724D0C352860521C0D68D5409E
:102E8000002D7FF415AF78BDF0B50B460021002270
:102E9000002487E001258D4005EA0302002A7DD049
:102EA00005684F000326BE4035430560CE0800F19B
:102EB000200555F826504E07F70E0F26BE40B543A5
:102EC000CF0800F1200646F8275085684F000326FA
:102ED000BE40B5438560466801258D40AE434660DF
:102EE000C5684F000326BE40B543C560C66A0125CC
:102EF0008D40AE43C662514D8E0855F826408D0771
:102F00002E0F0F25B5402C40B0F1904F01D1002578
:102F10001EE0444DA84201D1012519E0424DA842CE
:102F200001D1022514E0414DA84201D103250FE053
:102F30003F4DA84201D104250AE03E4DA84201D1EF
:102F4000052505E03C4DA84201D1062500E00725F6
:102F50008E07360FB540A54223D18D072E0F0F25C2
:102F600005FA06F4354D8E0855F82650A543334E24
:102F70008F0846F82750324D2D689543304E356006
:102F8000351D2D689543361D3560351D2D689543DB
:102F9000361D3560351D2D68954300E001E0361D76
:102FA0003560491C23FA01F5002D7FF473AFF0BDA5
:102FB000024613690B400BB1012000E0002070476E
:102FC0000AB1816100E08162704742694A40426112
:102FD000704708B502464FF48030009000980843CF
:102FE00000900098D061D1610098D061D0690090C4
:102FF000D06900F4803008B1002008BD0120FCE752
:10300000704710B504460E4814300068204028B1BF
:103010000B48143004602046FDF716FC10BD00007C
:10302000001002400004004800080048000C00485E
:103030000010004800140048001800480800014033
:1030400000040140704710B504460CB9012010BDC2
:1030500094F8410028B9002084F840002046FFF78A
:10306000F1FF242084F841002068006820F001006E
:1030700021680860606820F070602168086120683D
:10308000806820F4004021688860E068012805D14C
:10309000A06840F400402168886004E0A06840F423
:1030A000044021688860E068022802D1800221681B
:1030B000486020684068F7490843216848602068F4
:1030C000C06820F400402168C860D4E904010843C6
:1030D000A16940EA01202168C860D4E907010843DA
:1030E000216808602068006840F0010021680860DD
:1030F00000206064202084F841000020206384F8D0
:10310000420000BFA3E7704710B504460CB9012088
:1031100010BD242084F841002068006820F00100E0
:10312000216808602046FFF7EEFF0020606484F805
:103130004100206384F8420000BF84F8400000BFD3
:1031400000BFE5E701688969C1F3400111B10021C1
:10315000026891620168896901F0010129B9016879
:10316000896941F0010102689161704770B50446B8
:103170000D46164620688069C0F30010002837D03D
:1031800013E0681C88B125B1FFF710F8801BA84236
:103190000BD9202084F84100002084F8420000BFB1
:1031A00084F8400000BF032070BD20688069C0F330
:1031B00040100028E5D010202168C8612020216837
:1031C000C8612046FFF7BEFF20684068B24908404A
:1031D0002168486004206064202084F841000020B9
:1031E00084F8420000BF84F8400000BF0120DBE704
:1031F0000020D9E770B504460D4616461DE032465C
:1032000029462046FFF7B2FF08B1012070BD25B165
:10321000FEF7CCFF801BA8420FD9606C40F0200065
:103220006064202084F84100002084F8420000BF40
:1032300084F8400000BF0320E8E720688069C0F3FD
:1032400040100028DBD00020E0E7F0B50C46059DDB
:10325000002106687168914E3140C4F309064FF4AD
:103260007F0707EA02473E431E432E433143066869
:103270007160F0BD2DE9F04104460E4617461D462B
:10328000DDF8188015E0681C98B12DB1FEF78EFFAF
:10329000A0EB0800A8420CD9202084F841000020AF
:1032A00084F8420000BF84F8400000BF0320BDE85E
:1032B000F081206880693040B04201D1012000E0F7
:1032C0000020B842DFD00020F1E770B504460D467B
:1032D00016461FE0324629462046FFF747FF08B151
:1032E000012070BD681CA8B125B1FEF75FFF801BEF
:1032F000A8420FD9606C40F020006064202084F860
:103300004100002084F8420000BF84F8400000BF64
:103310000320E6E720688069C0F340000028D9D088
:103320000020DEE72DE9F8430446894616461F468D
:10333000DDF82080002594F84100202877D100BFD7
:1033400094F84000012802D10220BDE8F883012052
:1033500084F8400000BFFEF729FF0546192301222B
:10336000D10320460095FFF785FF08B10320ECE765
:10337000212084F84100102084F84200002060647D
:10338000666267856063608DFF280CD9FF20208509
:103390004FF40050009094F82820C302494620467C
:1033A000FFF753FF0BE0608D20854FF40050009035
:1033B00094F82820030349462046FFF746FF43E0E0
:1033C0002A4641462046FFF780FF30B1606C042852
:1033D00001D10120B9E70320B7E7616A481C6062A8
:1033E000087821688862608D401E6085208D401EAF
:1033F0002085208D40BB608D30B343460022802164
:1034000020460095FFF736FF08B103209DE7608D49
:10341000FF280DD9FF2020850020009094F8282057
:103420004FF0807349462046FFF70FFF0CE02FE076
:10343000608D20850020009094F828204FF00073C4
:1034400049462046FFF701FF608D0028B8D12A4683
:1034500041462046FFF7CEFE30B1606C042801D112
:10346000012072E7032070E720202168C8612068EE
:1034700040680949084021684860202084F84100DC
:10348000002084F8420000BF84F8400000BF5CE7E1
:1034900002205AE70080000200E800FE009800FCCD
:1034A00070B504460D46164637E03246294620469A
:1034B000FFF75CFE08B1012070BD20688069C0F391
:1034C0004010B0B120202168C86120684068FE49E2
:1034D00008402168486000206064202084F8410092
:1034E000002084F8420000BF84F8400000BF0120A3
:1034F000E2E725B1FEF75AFE801BA8420DD9606CA9
:1035000040F020006064202084F8410000BF0020CB
:1035100084F8400000BF0320CEE720688069C0F334
:1035200080000028C1D00020C6E72DE9F8430446FA
:10353000894616461F46DDF82080002594F8410094
:1035400020287AD100BF94F84000012802D102203F
:10355000BDE8F883012084F8400000BFFEF726FE96
:10356000054619230122D10320460095FFF782FE6C
:1035700008B10320ECE7222084F84100102084F8F1
:10358000420000206064666267856063608DFF288A
:103590000DD9FF2020854FF41050009094F828207A
:1035A0004FF0807349462046FFF74FFE0CE0608DD8
:1035B00020854FF41050009094F828204FF00073AD
:1035C00049462046FFF741FE44E02A464146204650
:1035D000FFF766FF30B1606C042801D10120B7E726
:1035E0000320B5E72068406AC1B2626A501C60627D
:1035F0001170208D401E2085608D401E6085208DBD
:1036000040BB608D30B343460022802120460095A8
:10361000FFF730FE08B103209AE7608DFF280DD92F
:10362000FF2020850020009094F828204FF0807320
:1036300049462046FFF709FE0CE02FE0608D20850B
:103640000020009094F828204FF00073494620464F
:10365000FFF7FBFD608D0028B7D12A464146204682
:10366000FFF7C8FD30B1606C042801D101206FE77D
:1036700003206DE720202168C861206840689249D6
:10368000084021684860202084F84100002084F828
:10369000420000BF84F8400000BF59E7022057E70E
:1036A0002DE9F84304460F4616469846002594F83F
:1036B000410020286FD107B116B90120BDE8F88379
:1036C00000BF94F84000012801D10220F6E7012054
:1036D00084F8400000BFFEF769FD0546212084F80C
:1036E0004100202084F84200002060646762668503
:1036F00060632068406820F40040216848604346C9
:103700000022082120460095FFF7B4FD38B120685B
:10371000406840F40040216848600320CEE708205C
:103720002168C861E068022812D1434600220821BE
:1037300020460095FFF79EFD38B12068406840F4B0
:103740000040216848600320B8E708202168C8616C
:10375000434600224FF4803120460095FFF78AFD52
:1037600038B12068406840F4004021684860032078
:10377000A4E71CE02A4641462046FFF7A6FD68B1B3
:103780002068406840F4004021684860606C04286C
:1037900002D1012092E745E003208FE7616A481CCF
:1037A0006062087821688862608D401E6085608D47
:1037B0000028DFD12A4641462046FFF71BFD68B1AD
:1037C0002068406840F4004021684860606C04282C
:1037D00002D10020606401E003206FE7202021680F
:1037E000C86143460122810220460095FFF742FD51
:1037F00038B12068406840F40040216848600320E8
:103800005CE72068406840F4004021684860202060
:1038100084F84100002084F8420000BF84F8400092
:1038200000BF4BE7022049E72DE9F84304460E4666
:1038300017469846002594F8410020287DD106B10E
:1038400017B90120BDE8F88300BF94F840000128B3
:1038500001D10220F6E7012084F8400000BFFEF706
:10386000A5FC0546222084F84100202084F842006F
:10387000002060646662678560632068406820F4A9
:1038800000402168486043460022082120460095F8
:10389000FFF7F0FC38B12068406840F40040216830
:1038A00048600320CEE708202168C8614346012212
:1038B000410320460095FFF7DDFC50B120684068C9
:1038C00040F40040216801E000E800FE4860032069
:1038D000B8E72BE02A4641462046FFF7E1FDD8B184
:1038E0002068406840F40040216848602068806992
:1038F000C0F3800048B12068406AC1B2626A501CBF
:1039000060621170608D401E6085606C202801D15E
:10391000032097E7012095E72068406AC1B2626AF8
:10392000501C60621170608D401E6085608D0028A3
:10393000D0D12A464146204600E033E0FFF75AFC4A
:1039400060B12068406840F4004021684860606CC5
:10395000042801D1012075E7032073E720202168A6
:10396000C86143460122810220460095FFF782FC90
:1039700038B12068406840F4004021684860032066
:1039800060E72068406840F40040216848602020DB
:1039900084F84100002084F8420000BF84F8400011
:1039A00000BF4FE702204DE770477047704710B5E2
:1039B00003460A46002102F0010048B141F04201ED
:1039C00093F8410000F02800282801D041F0B00110
:1039D00002F00200022809D141F0440193F84100AD
:1039E00000F02800282801D041F0B00102F00400C6
:1039F000042801D141F0B80102F01100112801D1D1
:103A000041F0900102F01200122801D141F0200192
:103A100002F01200122801D141F04001186800683C
:103A200088431C682060002010BD70B504460D4618
:103A3000FB48E06200202063202084F84100002041
:103A400084F84200606305F0040090B12068406A89
:103A5000C1B2626A501C60621170208D48B1208D25
:103A6000401E2085608D401E6085606C40F0040023
:103A7000606407212046FFF79AFF10202168C86183
:103A800000BF002084F8400000BF2046FFF78EFFF3
:103A900070BD7047704770B50546AC6A20684068D5
:103AA00040F40040216848600020A16B8863E16B0E
:103AB000886394F84100602806D1202084F84100F2
:103AC0002046FFF7E7FF02E02046FFF7E2FF70BD68
:103AD00010B50446002084F8420094F841002928DB
:103AE00011D1282084F841002120206301212046A3
:103AF000FFF75DFF00BF002084F8400000BF2046B4
:103B0000FFF752FF14E094F841002A2810D1282032
:103B100084F841002220206302212046FFF747FF5E
:103B200000BF002084F8400000BF2046FFF73DFFA3
:103B300010BD70472DE9F04704468946002700254F
:103B40000026A84694F8410000F02800282850D10B
:103B500020688069C0F300472068806900F47E0017
:103B6000050C20688068C0F309062068C06800F072
:103B7000FE08E06802282DD105F00600062101EAC2
:103B8000E611884216D13546A06C401CA064A06C9A
:103B9000022836D10020A06408202168C86100BF37
:103BA000002084F8400000BF2A4639462046FFF72F
:103BB000C0FF26E0454604212046FFF7F8FE00BF7F
:103BC000002084F8400000BF2A4639462046FFF70F
:103BD000B0FF16E004212046FFF7E9FE00BF0020F9
:103BE00084F8400000BF2A4639462046FFF7A1FF6F
:103BF00007E008202168C86100BF002084F8400069
:103C000000BFBDE8F08770B504460D46164600BFFC
:103C100094F84000012801D1022070BD012084F8F1
:103C2000400000BF05F0100098B306F0100080B30C
:103C3000608D30BBE06AB0F1007F03D0E06AB0F184
:103C4000007F08D194F84100282804D12946204655
:103C5000FFF7EBFE66E0E06A10F5803F0DD094F8C8
:103C60004100292809D110202168C8612046FFF7AA
:103C700069FA2046FFF72CFF54E010202168C86144
:103C800050E010202168C861606C40F0040060645E
:103C900048E0FFE705F00400D8B106F00400C0B129
:103CA000608D60B12068406AC1B2626A501C606277
:103CB0001170208D401E2085608D401E6085608DB6
:103CC00030BBE06A10F5803F2CD02046FFF700FFA4
:103CD00028E005F0080038B106F0080020B12946B8
:103CE0002046FFF727FF1DE005F0020080B106F037
:103CF000020068B1608D60B1616A481C606208783A
:103D000021688862608D401E6085208D401E208560
:103D100008E0E06AB0F1807F01D0E06A10B9204687
:103D2000FFF7D6FE05F0200030B106F0200018B1F4
:103D30002946204600F093F800BF002084F8400098
:103D400000BF00BF69E770B504460D46002084F847
:103D500042003348E06200206085606C2843606464
:103D600094F84100282807D094F84100292803D06E
:103D700094F841002A280BD103212046FFF717FEB3
:103D8000282084F8410000202063264860630DE06D
:103D900007212046FFF70BFE94F84100602802D06F
:103DA000202084F8410000202063606320680068C0
:103DB00000F48040B0F5804F15D12068006820F4F1
:103DC0008040216808601848A16B886300BF00200C
:103DD00084F8400000BFA06BFEF7E3FDF8B1A06BD4
:103DE000816B88473AE02068006800F40040B0F535
:103DF000004F1BD12068006820F400402168086053
:103E00000948E16B886300BF002084F8400000BFD0
:103E1000E06BFEF7C6FD10B1E06B816B88471DE0DB
:103E20000000FFFF073C0008973A000894F84100A3
:103E300060280BD1202084F8410000BF002084F8C6
:103E4000400000BF2046FFF725FE07E000BF00202E
:103E500084F8400000BF2046FFF71BFE70BD70B520
:103E600004460D4620202168C86108202168C861E9
:103E700007212046FFF79BFD2068406840F4004082
:103E80002168486020684068FC4908402168486013
:103E90002046FFF757F92068006800F48040B0F52D
:103EA000804F06D02068006800F40040B0F5004F55
:103EB0000BD194F84100212803D1A06B0068406821
:103EC00002E0E06B006840686085608D18B1606C4E
:103ED00040F00400606405F0040090B12068406A7E
:103EE000C1B2626A501C60621170208D48B1208D91
:103EF000401E2085608D401E6085606C40F004008F
:103F000060640020206384F842006063606C60B1EC
:103F1000616C2046FFF717FF94F84100282831D143
:103F200029462046FFF781FD2CE0E06A10F5803F2E
:103F30000DD0D348E062202084F8410000BF00206B
:103F400084F8400000BF2046FFF730FD1AE094F8E7
:103F5000410022280BD1202084F8410000BF00201E
:103F600084F8400000BF2046FFF71FFD0AE0202034
:103F700084F8410000BF002084F8400000BF2046C4
:103F8000FFF712FD70BD70B504460D46164600BF22
:103F900094F84000012801D1022070BD012084F86E
:103FA000400000BF05F01000D0B106F01000B8B11D
:103FB00094F84100212803D1A06B0068406802E01A
:103FC000E06B0068406818B910202168C8611BE0E8
:103FD00010202168C861606C40F00400606413E048
:103FE00005F0080030B106F0080018B1082021687B
:103FF000C86109E005F0200030B106F0200018B1DA
:1040000029462046FFF72BFF00BF002084F8400020
:1040100000BF00BFC1E7704770477047704770B579
:1040200004460D4620202168C861206840689349F5
:104030000840216848600020206360639048E06287
:1040400005F0100030B110202168C861606C40F0AC
:10405000040060642046FFF775F803212046FFF74F
:10406000A6FC606C18B994F84100602804D1616C1A
:104070002046FFF768FE40E094F8410021281CD15B
:10408000202084F8410094F8420040280AD1002002
:1040900084F8420000BF84F8400000BF2046FFF7CC
:1040A000BDFF2AE0002084F8420000BF84F84000F1
:1040B00000BF2046FFF7B1FF1FE094F8410022281F
:1040C0001BD1202084F8410094F8420040280AD1F6
:1040D000002084F8420000BF84F8400000BF204662
:1040E000FFF79AFF09E0002084F8420000BF84F83F
:1040F000400000BF2046FFF78EFF70BD2DE9F8435A
:1041000004460D4616460027B84600BF94F8400006
:10411000012802D10220BDE8F883012084F8400084
:1041200000BF05F0100088B106F0100070B110203B
:104130002168C861606C40F0040060641221204670
:1041400000F05AF82046FEF7FDFF4EE005F0800033
:10415000002840D006F0400078B32068006820F0C6
:10416000400021680860608D40B320684068C0F35B
:104170000907608DFF2804D9FF2020854FF0807843
:1041800003E0608D20854FF000780020009094F8C7
:104190002820434639462046FFF757F8608D218D89
:1041A000401A608594F84100222808D120680068F0
:1041B00040F400402168086017E00CE006E0206849
:1041C000006840F48040216808600EE040212046ED
:1041D000FFF7B9FD09E005F0200030B106F020003E
:1041E00018B129462046FFF71AFF00BF002084F8C7
:1041F000400000BF00BF8EE710B503460022214CEF
:10420000586BA04203D0204C586BA04218D101F04B
:104210000400042801D142F0B80201F01100112875
:1042200001D142F0900201F01200122801D142F0B7
:10423000200201F01200122819D142F0400216E0CB
:1042400001F00400042801D142F0B80201F001009D
:1042500008B142F0F20201F00200022801D142F05E
:10426000F40201F01200122801D142F02002186875
:10427000006810431C682060002010BD00E800FEAC
:104280000000FFFFFD400008873F000810B504460E
:10429000002084F8420094F84100212813D1202006
:1042A00084F8410011202063002060630121204632
:1042B000FFF77DFB00BF002084F8400000BF2046D0
:1042C000FFF7ABFE12E0202084F8410012202063AB
:1042D0000020606302212046FFF769FB00BF002039
:1042E00084F8400000BF2046FFF795FE10BDF8B5EA
:1042F00004460D461646002700BF94F840000128EA
:1043000001D10220F8BD012084F8400000BF05F073
:10431000100068B106F0100050B110202168C8618B
:10432000606C40F0040060642046FEF70BFF94E0F0
:1043300005F0040080B106F0040068B12068406A0E
:10434000C1B2626A501C60621170208D401E2085CF
:10435000608D401E608580E005F0020078B106F0B7
:10436000020060B1616A481C606208782168886256
:10437000208D401E2085608D401E60856DE005F01B
:104380008000002847D006F0400090B3208D88BB05
:10439000608D78B320684068C0F30907608DFF28FE
:1043A0000CD9FF2020850020009094F828204FF0A1
:1043B000807339462046FEF748FF4EE0608D208529
:1043C000E06A10F5803F09D000200090E36A94F87D
:1043D000282039462046FEF738FF3EE000200090B6
:1043E00094F828204FF0007339462046FEF72DFF41
:1043F00033E010E0FFE72068406800F00070B0F1A3
:10440000007F03D02046FFF741FF26E040212046F1
:10441000FFF799FC21E005F04000F0B106F0400004
:10442000D8B1608DA8B92068406800F00070B0F184
:10443000007F12D0E06A10F5803F06D12068406806
:1044400040F480402168486007E02046FFF71EFFE7
:1044500003E040212046FFF776FC05F0200030B154
:1044600006F0200018B129462046FFF7D8FD00BF0E
:10447000002084F8400000BF00BF43E72DE9F84367
:1044800004460F4615461E464FF0000894F84100BA
:10449000202841D120688069C0F3C03010B10220CB
:1044A000BDE8F88300BF94F84000012801D1022044
:1044B000F6E7012084F8400000BF212084F8410085
:1044C000102084F842000020606465626685FE4822
:1044D000E062FE486063608DFF2804D9FF202085DC
:1044E0004FF0807803E0608D20854FF000784FF426
:1044F0000050009094F82820434639462046FEF7A5
:10450000A4FE00BF002084F8400000BF0121204627
:10451000FFF772FE0020C3E70220C1E72DE9F84350
:1045200004460F4615461E464FF0000894F8410019
:10453000202841D120688069C0F3C03010B102202A
:10454000BDE8F88300BF94F84000012801D10220A3
:10455000F6E7012084F8400000BF222084F84100E3
:10456000102084F842000020606465626685D648A9
:10457000E062D6486063608DFF2804D9FF20208563
:104580004FF0807803E0608D20854FF000784FF485
:104590001050009094F82820434639462046FEF7F4
:1045A00054FE00BF002084F8400000BF02212046D6
:1045B000FFF722FE0020C3E70220C1E770B50446E2
:1045C0000E46154694F8410020282BD100BF94F8E0
:1045D0004000012801D1022070BD012084F8400074
:1045E00000BF212084F84100202084F842000020F0
:1045F00060642068406820F400402168486066627A
:104600006585608D2085B048E062B148606300BF79
:10461000002084F8400000BF05212046FFF7ECFD94
:104620000020D9E70220D7E770B504460E461546AC
:1046300094F8410020282BD100BF94F840000128B5
:1046400001D1022070BD012084F8400000BF22206B
:1046500084F84100202084F8420000206064206833
:10466000406820F400402168486066626585608D7E
:1046700020859548E0629648606300BF002084F87A
:10468000400000BF06212046FFF7B6FD0020D9E715
:104690000220D7E770B50546AC6A2068406840F450
:1046A00000402168486010212046FFF74CFB70BD98
:1046B00070B50546AC6A2068006820F48040216827
:1046C0000860608D20B912212046FFF795FD17E0A4
:1046D000218D606A08446062608DFF2802D9FF2046
:1046E000208501E0608D2085238D266806F1280253
:1046F000616AA06BFEF7E2F812212046FFF77CFD0D
:1047000070BD2DE9F84304460F4615461E464FF08E
:10471000000894F84100202878D120688069C0F30F
:10472000C03010B10220BDE8F88300BF94F840000B
:10473000012801D10220F6E7012084F8400000BFE3
:10474000212084F84100102084F842000020606499
:10475000656266855C48E0625E486063608DFF2844
:1047600004D9FF2020854FF0807803E0608D2085FC
:104770004FF00078208D80B35748A16BC86257482E
:10478000A16B48630020A16B0863A16B8863238D34
:10479000216801F128022946A06BFEF78FF84FF43B
:1047A0000050009094F82820434639462046FEF7F2
:1047B0004CFD608D218D401A608500BF002084F87B
:1047C000400000BF11212046FFF716FD2068006859
:1047D00040F480402168086015E0FFE73B486063D3
:1047E0004FF40050009094F82820030339462046E7
:1047F000FEF72BFD00BF002084F8400000BF012120
:104800002046FFF7F9FC00208DE7FFE702208AE74A
:1048100070B50546AC6A2068006820F40040216845
:104820000860608D20B912212046FFF7E5FC17E0F3
:10483000218D606A08446062608DFF2802D9FF20E4
:10484000208501E0608D2085238D266806F12401F6
:10485000626AE06BFEF732F812212046FFF7CCFCCB
:1048600070BD2DE9F84304460F4615461E464FF02D
:10487000000894F8410020286DD120688069C0F3B9
:10488000C03010B10220BDE8F88300BF94F84000AA
:10489000012801D10220F6E7012084F8400000BF82
:1048A000222084F84100102084F842000020606437
:1048B000656266850448E06206486063608DFF2893
:1048C00011D9FF2020850BE00000FFFFEF42000818
:1048D000073C0008FD400008B14600089546000866
:1048E0004FF0807803E0608D20854FF00078208DB8
:1048F00080B3FE48E16BC862FD48E16B486300206D
:10490000E16B0863E16B8863238D226802F1240167
:104910002A46E06BFDF7D2FF4FF41050009094F858
:104920002820434639462046FEF78FFC608D218DB6
:10493000401A608500BF002084F8400000BF1121AC
:104940002046FFF759FC2068006840F400402168C9
:10495000086017E000E017E0E64860634FF410508D
:10496000009094F828204FF0007339462046FEF757
:104970006CFC00BF002084F8400000BF01212046ED
:10498000FFF73AFC00207EE702207CE7704770B515
:1049900004460D46164694F84100202848D105B13A
:1049A0000EB9012070BD00BF94F84000012801D16C
:1049B0000220F7E7012084F8400000BF212084F89E
:1049C0004100202084F84200002060646562668512
:1049D000608D2085C848E062C8486063C848A16B04
:1049E000C862C348A16B48630020A16B0863A16B38
:1049F0008863238D216801F128022946A06BFDF709
:104A00005DFF2068406820F400402168486000BFD6
:104A1000002084F8400000BF04212046FFF7ECFB93
:104A20002068006840F48040216808600020B9E7F1
:104A30000220B7E7704770B504460D46164694F855
:104A40004100202848D105B10EB9012070BD00BF3A
:104A500094F84000012801D10220F7E7012084F8F2
:104A6000400000BF222084F84100202084F842004A
:104A70000020606465626685608D20859E48E062E6
:104A80009E4860639F48E16BC8629948E16B486348
:104A90000020E16B0863E16B8863238D226802F1DB
:104AA00024012A46E06BFDF709FF2068406820F4E6
:104AB00000402168486000BF002084F8400000BF2B
:104AC00004212046FFF798FB2068006840F400406E
:104AD000216808600020B9E70220B7E72DE9F84314
:104AE0000446894615461E46DDE908784FF4005015
:104AF000F2B2C302494600902046FEF7A6FB4246AA
:104B000039462046FEF7E1FB38B1606C042802D13B
:104B10000120BDE8F8830320FBE7012E03D1E8B2B2
:104B20002168886213E0C5F3072021688862424645
:104B300039462046FEF7C9FB30B1606C042801D12C
:104B40000120E6E70320E4E7E8B2216888623B46FB
:104B5000002280212046CDF80080FEF78BFB08B1B3
:104B60000320D6E70020D4E72DE9FC5F0446894600
:104B700092469B46DDE90C780E9E002594F8410094
:104B800020286ED117B1B8F1000F02D1012000F03A
:104B9000BFBE00BF94F84000012801D10220F6E713
:104BA000012084F8400000BFFDF700FB05461923F3
:104BB0000122D10320460095FEF75CFB08B10320DB
:104BC000E5E7212084F84100402084F842000020DD
:104BD00060646762A4F82A8060635B465246494677
:104BE0002046CDE90065FFF779FF80B1606C0428AD
:104BF00006D100BF002084F8400000BF0120C6E7B6
:104C000000BF002084F8400000BF0320BFE7608D94
:104C1000FF280CD9FF2020850020009094F8282040
:104C20004FF0807349462046FEF70FFB0BE0608D86
:104C300020850020009094F828204FF0007349460A
:104C40002046FEF702FB00BF2A4631462046FEF70B
:104C50003CFB38B1606C042801D1012097E70320A8
:104C600095E767E0616A481C60620878216888629D
:104C7000608D401E6085208D401E2085208D38BBB4
:104C8000608D28B333460022802120460095FEF730
:104C9000F1FA08B103207AE7608DFF280CD9FF20D4
:104CA00020850020009094F828204FF0807349461A
:104CB0002046FEF7CAFA0BE0608D208500200090A8
:104CC00094F828204FF0007349462046FEF7BDFABD
:104CD000608D0028B8D12A4631462046FEF78AFA70
:104CE000A0B1606C04280FD1012050E711480008E2
:104CF00095460008EF4200080000FFFF873F0008CC
:104D00008D490008354A0008032040E7202021682B
:104D1000C86120684068FE4908402168486020203A
:104D200084F84100002084F8420000BF84F840006D
:104D300000BF2CE702202AE72DE9F8430446894604
:104D400015461E46DDE908784FF40050F2B2002304
:104D5000494600902046FEF778FA424639462046FA
:104D6000FEF7B3FA38B1606C042802D10120BDE827
:104D7000F8830320FBE7012E03D1E8B221688862A3
:104D800013E0C5F307202168886242463946204671
:104D9000FEF79BFA30B1606C042801D10120E6E7F0
:104DA0000320E4E7E8B2216888623B460022402104
:104DB0002046CDF80080FEF75DFA08B10320D6E763
:104DC0000020D4E72DE9FC5F0446894692469B46C5
:104DD000DDE90C780E9E002594F8410020287DD155
:104DE00017B1B8F1000F02D1012000F091BD00BF52
:104DF00094F84000012801D10220F6E7012084F850
:104E0000400000BFFDF7D2F9054619230122D10366
:104E100020460095FEF72EFA08B10320E5E7222090
:104E200084F84100402084F84200002060646762FA
:104E3000A4F82A8060635B46524649462046CDE985
:104E40000065FFF779FF80B1606C042806D100BFD0
:104E5000002084F8400000BF0120C6E700BF00200A
:104E600084F8400000BF0320BFE7608DFF280DD904
:104E7000FF2020854FF41050009094F828204FF028
:104E8000807349462046FEF7E0F90CE0608D2085EE
:104E90004FF41050009094F828204FF000734946CA
:104EA0002046FEF7D2F900BF3346002204212046F7
:104EB0000095FEF7DFF908B1032096E72068406A05
:104EC000C1B2626A501C60621170208D401E208544
:104ED000608D401E6085208D48BB00E04BE0608DFA
:104EE00028B333460022802120460095FEF7C2F900
:104EF00008B1032079E7608DFF280CD9FF202085B9
:104F00000020009094F828204FF0807349462046F6
:104F1000FEF79BF90BE0608D20850020009094F84F
:104F200028204FF0007349462046FEF78EF9608D29
:104F30000028B9D12A4631462046FEF75BF930B148
:104F4000606C042801D101204FE703204DE72020A9
:104F50002168C861206840686D4908402168486040
:104F6000202084F84100002084F8420000BF84F82B
:104F7000400000BF39E7022037E72DE9FC5F044617
:104F80000F4690469946DDE90C564FF0000AD3468D
:104F900094F84100202862D105B116B9012000F033
:104FA000B7BC20688069C0F3C03008B10220F6E7C2
:104FB00000BF94F84000012801D10220EFE7012052
:104FC00084F8400000BFFDF7F1F88246212084F804
:104FD0004100402084F842000020606465626685DC
:104FE0004C48E0624C486063608DFF2804D9FF2084
:104FF00020854FF0807B03E0608D20854FF0007BA3
:1050000019204B4642463946CDE9000A2046FFF7B3
:1050100065FD80B1606C042806D100BF002084F8D3
:10502000400000BF0120BAE700BF002084F8400024
:1050300000BF0320B3E70020009094F828205B46CF
:1050400039462046FEF701F900BF002084F84000F1
:1050500000BF01212046FFF7CFF800209FE7022084
:105060009DE72DE9FC5F04460F4690469946DDE931
:105070000C564FF0000AD34694F84100202869D11D
:1050800005B116B9012000F043BC20688069C0F367
:10509000C03008B10220F6E700BF94F840000128B4
:1050A00001D10220EFE7012084F8400000BFFDF7A6
:1050B0007DF88246222084F84100402084F8420096
:1050C00000206064656266851248E0621248606391
:1050D000608DFF2804D9FF2020854FF0807B03E0FE
:1050E000608D20854FF0007B19204B4642463946A3
:1050F000CDE9000A2046FFF71FFEB0B1606C04281E
:105100000CD100BF002084F8400000BF0120BAE7A6
:1051100000E800FE0000FFFFEF42000800BF002093
:1051200084F8400000BF0320ADE74FF4105000901A
:1051300094F828205B4639462046FEF786F800BFE3
:10514000002084F8400000BF02212046FFF754F8F9
:10515000002098E7022096E72DE9FC5F04460F4601
:1051600090469946DDE90C564FF0000AD34694F874
:10517000410020287ED105B116B9012000F0C8BB3E
:1051800020688069C0F3C03008B10220F6E700BF94
:1051900094F84000012801D10220EFE7012084F8B3
:1051A000400000BFFDF702F88246212084F841004C
:1051B000402084F842000020606465626685F748FC
:1051C000E062F7486063608DFF2804D9FF202085E6
:1051D0004FF0807B03E0608D20854FF0007B19202D
:1051E0004B4642463946CDE9000A2046FFF776FC99
:1051F00080B1606C042806D100BF002084F8400014
:1052000000BF0120BAE700BF002084F8400000BFC3
:105210000320B3E7E348A16BC862E348A16B48638E
:105220000020A16B0863A16B8863238D216801F1C5
:1052300028022946A06BFDF741FB0020009094F85E
:1052400028205B4639462046FDF7FFFF608D218D03
:10525000401A608500BF002084F8400000BF112183
:105260002046FEF7C9FF2068006840F480402168AE
:10527000086000E001E0002080E702207EE72DE9E1
:10528000FC5F04460F4690469946DDE90C564FF008
:10529000000AD34694F8410020287DD105B116B903
:1052A000012000F035BB20688069C0F3C03008B130
:1052B0000220F6E700BF94F84000012801D1022047
:1052C000EFE7012084F8400000BFFCF76FFF824643
:1052D000222084F84100402084F8420000206064CD
:1052E00065626685AD48E062AD486063608DFF2809
:1052F00004D9FF2020854FF0807B03E0608D20855E
:105300004FF0007B19204B4642463946CDE9000A52
:105310002046FFF711FD80B1606C042806D100BF64
:10532000002084F8400000BF0120BAE700BF002041
:1053300084F8400000BF0320B3E79C48E16BC862DB
:105340009948E16B48630020E16B0863E16B886377
:10535000238D226802F124012A46E06BFDF7AEFAA4
:105360004FF41050009094F828205B4639462046B0
:10537000FDF76BFF608D218D401A608500BF002016
:1053800084F8400000BF2068006840F400402168B5
:1053900008601121204600E003E0FEF72DFF002009
:1053A0007FE702207DE72DE9FC4104460F46904649
:1053B0001D4600260020019094F84100202870D15D
:1053C00020688069C0F3C03010B10220BDE8FC81C4
:1053D00000BF94F84000012801D10220F6E7012027
:1053E00084F8400000BF242084F84100002060645D
:1053F00000BFE068012806D1C7F3090040F400505F
:1054000040F0007003E0C7F3090040F42050216829
:105410004860FCF7CBFE064611E0681C78B125B168
:10542000FCF7C4FE801BA84209D9202084F8410063
:1054300000BF002084F8400000BF0320C6E72068BA
:105440008069C0F3401040B920688069C0F3001043
:1054500018B994F84100A028DFD120688069C0F312
:105460000010A0B92B460022202120460096FDF70F
:1054700001FF08B10320A9E720202168C86184F852
:10548000410000BF002084F8400000BF9EE72B468B
:105490000022202120460096FDF7ECFE10B10320EB
:1054A00094E72AE010202168C86120202168C861A3
:1054B0000198411C0191404512D12068406840F498
:1054C0008040216848602B4600222021204600961B
:1054D000FDF7D0FE08B1032078E720202168C861DD
:1054E0000198404585D3202084F8410000BF00206A
:1054F00084F8400000BF032068E7022066E72DE93A
:10550000F84F04460F4615461E46DDF828804FF03A
:1055100000094FF4005A94F8410020284AD100BFF6
:1055200094F84000012802D1022000F0F4B90120D3
:1055300084F8400000BF212084F84100102084F846
:1055400042000020606465626685C4F82C801848BB
:105550006063608DFF2804D9FF2020854FF080799B
:1055600003E0608D2085D4F82C90206B112801D1A8
:105570004FF0000ACDF800A094F828204B46394699
:105580002046FDF762FE00BF002084F8400000BF07
:1055900001212046FEF730FE0020C6E70000FFFF95
:1055A000FD400008B1460008954600081148000873
:1055B000EF4200080220B8E72DE9F84F04460F46F5
:1055C00015461E46DDF828804FF000094FF4105AAA
:1055D00094F8410020283ED100BF94F840000128F3
:1055E00002D1022000F097B9012084F8400000BFEA
:1055F000222084F84100102084F8420000206064DA
:1056000065626685C4F82C80BF486063608DFF28A2
:1056100004D9FF2020854FF0807903E0608D20853C
:10562000D4F82C90206B122801D14FF0000ACDF84D
:1056300000A094F828204B4639462046FDF705FE89
:1056400000BF002084F8400000BF02212046FEF782
:10565000D3FD0020C6E70220C4E72DE9F04104464F
:105660000D4616461F4694F8410000F028002828F1
:1056700043D105B116B90120BDE8F08105212046CE
:10568000FEF795F900BF94F84000012801D10220EF
:10569000F2E7012084F8400000BF94F841002A2876
:1056A00003D102212046FEF782F9292084F8410027
:1056B000202084F84200002060642068406820F4C4
:1056C00000402168486065626685608D2085E762DC
:1056D0008E48606320688069C0F3004010B10820E4
:1056E0002168C86100BF002084F8400000BF052188
:1056F0002046FEF781FD0020BEE70120BCE72DE932
:10570000F04104460D4616461F4694F8410000F04D
:105710002800282843D105B116B90120BDE8F08141
:1057200006212046FEF743F900BF94F84000012807
:1057300001D10220F2E7012084F8400000BF94F874
:105740004100292803D101212046FEF730F92A2003
:1057500084F84100202084F8420000206064206822
:10576000406820F400402168486065626685608D6D
:105770002085E7626548606320688069C0F3004067
:1057800010B908202168C86100BF002084F84000DB
:1057900000BF06212046FEF72FFD0020BEE70120B6
:1057A000BCE710B5044694F8410020280AD128200F
:1057B00084F841005548606304212046FEF71CFD33
:1057C000002010BD0220FCE770B5044694F84100AB
:1057D000282812D13034607C00F00305A07C2843D7
:1057E0002060202060740020A0746060303C0421A0
:1057F0002046FEF7DCF8002070BD0220FCE738B53B
:1058000004460D4694F84200102829D100BF94F8B0
:105810004000012801D1022038BD012084F8400059
:1058200000BF02212046FEF7C2F801212046FEF704
:10583000BEF8602084F841004FF48040C30201228A
:10584000294600902046FDF700FD00BF002084F8A7
:10585000400000BF12212046FEF7CEFC0020DBE70F
:105860000120D9E770B5044620688569206806687C
:10587000606B20B1324629462046636B984770BD65
:1058800070B50446206885692068066805F4807054
:1058900050B106F0800038B1606C40F001006064E7
:1058A0004FF480702168C86105F4806050B106F043
:1058B000800038B1606C40F0080060644FF4806094
:1058C0002168C86105F4007050B106F0800038B15D
:1058D000606C40F0020060644FF400702168C861A1
:1058E000606C00F00B0018B1616C2046FEF72BFADB
:1058F00070BD014691F841007047014691F84200A1
:1059000070470146486C7047EF420008073C0008AA
:105910003CBCBDE8C09F18BCBDE8E08F024692F8D1
:10592000410020282DD100BF92F84000012801D16C
:1059300002207047012082F8400000BF242082F836
:1059400041001068006820F00100136818601068BA
:10595000006820F4805013681860106800680843DD
:10596000136818601068006840F001001368186040
:10597000202082F8410000BF002082F8400000BFD4
:10598000D7E70220D5E710B502460B46002192F872
:10599000410020282AD100BF92F84000012801D1FF
:1059A000022010BD012082F8400000BF242082F8B0
:1059B00041001068006820F0010014682060106841
:1059C000016821F4706141EA0321106801601068E8
:1059D000006840F0010014682060202082F8410037
:1059E00000BF002082F8400000BFDAE70220D8E7BD
:1059F000014691F84100202828D100BF91F84000CD
:105A0000012801D102207047012081F8400000BF29
:105A1000242081F841000868006820F001000A682D
:105A200010600868006840F480200A681060086808
:105A3000006840F001000A681060202081F84100F1
:105A400000BF002081F8400000BFDCE70220DAE759
:105A5000014691F84100202828D100BF91F840006C
:105A6000012801D102207047012081F8400000BFC9
:105A7000242081F841000868006820F001000A68CD
:105A800010600868006820F480200A6810600868C8
:105A9000006840F001000A681060202081F8410091
:105AA00000BF002081F8400000BFDCE70220DAE7F9
:105AB00008B500BF1349096E41F00101114A116692
:105AC0001146096E01F00101009100BF00BF0E49AF
:105AD000496801430C4A516008BD08B500BF094937
